:100000000C9492160C94B3160C941B2F0C94C12FC5
:100010000C94B3160C94B3160C94B3160C94B3163C
:100020000C9409310C94B3160C94CD5E0C94CB5EF9
:100030000C94B3160C94B3160C94753D0C942D319E
:100040000C94B3160C94B3160C94B3160C94B3160C
:100050000C940E300C94B3160C94B3160C94B31687
:100060000C94B3160C94B3160C94B3160C94B316EC
:100070000C94B3160C94B3160C94B3160C94B316DC
:100080000C94B3160C94B3160C94B3160C94B316CC
:100090000C94B3160C94B3160C94B3160C94B316BC
:1000A0000C94B3160C94B3160C94B3160C94B316AC
:1000B0000C94B3160C94B3160C94B3160C94B3169C
:1000C0000C94B3160C94B3160C94B3160C94B3168C
:1000D0000C94B3160C94413B0C94B3160C94B316C9
:1000E0000C94B3160C94B3160C94C12C0C946A2E79
:1000F0000C94B3160C94B3160C94B3160C94B3165C
:100100000C94B3160C94B3160C94B3160C94B3164B
:100110000C94B3160C94B3160C94B3160C94B3163B
:100120000C94B3160C94B3160C94B3160C94B3162B
:100130000C94B3160C94B3160C9488310C94B3162B
:100140000C94B3160C94B3160C94B3160C94B3160B
:100150000C94B3160C94B3160C94B3160C94B316FB
:100160000C94B3160C94B3160C94B3160C94B316EB
:100170000C94B3160C94B3160C94B3160C94B316DB
:100180000C94B3160C94B3160C94B3160C94B316CB
:100190000C94B3160C94B3160C94B3160C94B316BB
:1001A0000C94A8310C94B3160C94B3160C94B3169B
:1001B0000C94CF5E0C94B3160C94D3640C94B316C9
:1001C0000C94B3160C94B3160C94B3160C94B3168B
:1001D0000C94B3160C94B3160C94B3160C94B3167B
:1001E0000C94B3160C94B3160C94B3160C94B3166B
:1001F0000C94B3160C9455690C949A697B470B4880
:100200002B484A4859480B482B486748E9483D491C
:100210007449AB49BA49C549E249024A1E4A384ABB
:10022000454A594A6A4A7A4A8A4A9E4AAB4AB84A71
:10023000F24A034B104B1D4B2C4B394B4B4B664B2F
:10024000734B8F4BD64BEE4B034C174C314C4B4CF6
:10025000654C764C8B4C964CA84CBA4CDB4CFC4C09
:10026000094D244D414D634D744DAF4DCE4DED4D77
:10027000054E1D4E3A4E4F4E614E754E894E9D4E67
:10028000B64ECF4EE64EFD4E104F234F364FA04F89
:10029000A64FAC4FB24FB84FC64FD64FE44FF24FB8
:1002A00004500C50205033503F504B5085518551D5
:1002B00057506850855185517450855186509450DF
:1002C0008551A250B050BE50CE50DC50EA50FD5087
:1002D0001051235185512F5141514F515551675163
:1002E00085517951EB516D536D536D5301520C5241
:1002F00040527652C352005317531E5325532C536A
:100300002F5333533C534E535D538A669566A5660F
:10031000B566C866D866E966F966CA69B86ABC6A2D
:10032000B86ABC6AD169E969BC6A036A0A6A0C9452
:10033000174C0C94FC4C0C944F510C94654C0C9441
:10034000364F0C9401520C944A480C94D1690C9489
:1003500057500C94BC6A0C94C3520C942B480C94C8
:10036000A2500C94E9480C94F9660C94AB490C9497
:10037000EB510C9423510C9404500C942C4B0C9482
:1003800074500C944B4B0C943F500C948B4C0C942D
:100390000C500C943D490C9467480C94B84A0C944A
:1003A000CA690C94AC4F0C9486500C94EE4B0C9490
:1003B000BE500C9468500C94D64F0C94E64E0C949E
:1003C000E2490C941E4A0C94F24A0C944B4C0C9447
:1003D00020500C94024A0C94CE500C949E4A0C94DB
:1003E0006D530C94EA500C94C64F0C9455510C94D8
:1003F000C8660C941E530C942F530C943C530C94CD
:1004000095660C94AB4A0C94A04F0C94A64F0C9498
:100410009D4E0C942F510C94FD4E0C94CE4D0C948B
:10042000414D0C94394B0C9440520C94A5660C949D
:100430006A4A0C94B64E0C944F4E0C940B480C9494
:1004400010510C9479510C94764C0C94054E0C94EC
:100450004B500C94744D0C94B86A0C941D4B0C9436
:10046000A84C0C94664B0C94894E0C94384A0C940E
:100470008A660C9494500C94F24F0C94E44F0C94B4
:100480000A6A0C94BA4C0C948F4B0C94314C0C941B
:1004900076520C94B24F0C9433530C943A4E0C9405
:1004A000B5660C94234F0C94BA490C9459480C949B
:1004B0007A4A0C94C5490C94ED4D0C947B470C94EE
:1004C00025530C9441510C9400530C94D8660C9411
:1004D000614E0C94454A0C94594A0C94244D0C944A
:1004E000964C0C941D4E0C94DC500C942C530C9494
:1004F000034C0C94AF4D0C94DB4C0C94B84F0C9403
:10050000D64B0C9417530C94094D0C940C520C942C
:10051000754E0C94104F0C94734B0C94034B0C942D
:1005200085510C944E530C94E9660C9433500C9402
:10053000036A0C945D530C94634D0C9467510C94B6
:100540008A4A0C94CF4E0C94B0500C94104B0C94DF
:1005500074490C94FD500C94E969506C6179657292
:100560007320204C6576656C202053746172740092
:100570004C6576656C3A200048756D616E0043509D
:1005800055202000426C61636B3A200048756D6114
:100590006E0043505520200057686974653A20006A
:1005A000436865737300F0F1EF0001100001100F54
:1005B00011000E121F210007FF0B06080306060399
:1005C00005070405030600020207FF080C170000D8
:1005D000ED06B5067B064D061F06E805FE06CF06AE
:1005E00099066206340602060D10FFFF04F7FFF9B4
:1005F000F7FC17FE17D017FE17FC17F9F7F702FFE5
:10060000FF050D100000020800161C09F404142E4A
:100610001450142E14041409F4161C080000030DC1
:1006200010FFFF07F7F3E7FA07F207FA07F3E7FF10
:10063000F7FFFF060D100000050C1E1413E40A045A
:1006400012040A0413E41E14000C0000040D10FF31
:10065000FF07F7F8E7F447CE47F447F8E7FFF7FF5F
:10066000FF060D100000050C071408E434444E4446
:10067000344408E40714000C0000040D10FFFF02CE
:10068000FE7FFC3FFC1FFC17EE17D1D7EE17FC17BF
:10069000FC1FFC3FFE7FFFFF020D1003C00660043D
:1006A00030041C3C146E1451D46E143C14041C040D
:1006B00030066003C00D10FFFF04FE3FF83FE47FEB
:1006C000F07FE0E7F007F007F807FE07FFFF040DF3
:1006D0001000000201C0062018202440105C20E415
:1006E000100410040804060401FC0000020D10FFB1
:1006F000FF09F7F967F807F967FFF7FFFF080D1023
:100700000000070C06940964080409640694000CB0
:100710000000060000500E700BB1081D076040007D
:1007200000B901F0000006031E00000601838000EE
:1007300001F8000003C0C0020003FE000003606077
:10074000020007FF000003303002000FFF0000032B
:100750001810001FFF8000400818003FFF8000E0D5
:10076000080802007FFF8000B008080200FFFF02B7
:1007700080009808080201FFFF0280008C1808031F
:10078000FFFF02800087300807FFFF02000002C160
:10079000E0080FFFFE0000024000081FFFFC000001
:1007A0000240000C1FFFF80000026000061FFFF06F
:1007B00000000230003B1FFFE000000218006D9FA8
:1007C000FFC00000020E0046DFFF80000002038E23
:1007D000637FFF000004FB31BFFE0000040198DFCF
:1007E000FC000005CC6FF8000005663600000633FB
:1007F0001B000006198D800000050CC6C000000516
:100800001E63600000053331B00000056398D80016
:100810000005C6CC6C000004018C663600000403A1
:1008200018331B0000040630198D800000030C6093
:100830000CC6C000000318C00663600000033180CE
:100840000331B0000003630001989802000003C662
:10085000000002CD8C000002078C00000267060039
:1008600000020C18000002300300000218300000E3
:10087000021801800030200000020C00C00060203F
:1008800000000206060240003060000002030E4035
:100890000018C0000002018E40000D80000003CC53
:1008A000C00007000004618000020000043F000057
:1008B000B96040000007FF00000601FF00000603CA
:1008C000FF00000607FF0000060FFF0000061FFFE5
:1008D0000000063FFF0000067FFF000006FFFF024A
:1008E000000006FFFF02000006FFC3000006FFBB7A
:1008F000000006FF6B000006FEEB000006F9EB00AF
:1009000000040F80F7EB0000041FD00FEB00000481
:100910003FEFFBEB0000043FEFFBEB0000043FEF79
:10092000FBEB0000043FEFFBEB0000043FEFFBEBB1
:10093000000003103FEFFBEB000600281FD0FFEB89
:10094000000B00680F81FFEB0004C2A8000E01EB52
:10095000000A3D2FFFF100EB000A05280001006BA3
:10096000001405280001007B0064052800010053E5
:1009700000A205280001005F00A205280001005F19
:10098000006405280001007300140529FE0100C35E
:10099000000A052902010323000A1D2F0101020C90
:1009A000230004E2A9F1FFF023000B006811000806
:1009B0002300060029F100082300000311010008AC
:1009C00023000003010102000823000003010102CB
:1009D00000082300000301010200082300000301B6
:1009E000F10008230000041100082300000301F1B6
:1009F000FFF023000003070100FC2300000319029D
:100A000000FB2300000323FF80E4C3000002014633
:100A100002FF8423000002028E0280041F000002F5
:100A2000028E02800417000002028E02800417006A
:100A300007814702800417000FC4A3E28004170057
:100A40001F7B5806FF84171E3F7B5C0FFFE4171EB9
:100A50005F7B5FFFFF02F8176CDF7B5FFFFF02DE4B
:100A6000177FDF7B5FFFFF02DF177FDF7B5FFFFF0B
:100A700002DF976CDF7B5FFFFF02DFFF1E5F7B5FA4
:100A8000FFFF02DF7F1E3F7B5FF007DF69001F7BF8
:100A90005FC000FFC9000FC4D083FC1F890007801E
:100AA000511C00E609000003212000110900000389
:100AB00002207C01090000030240038909000003B1
:100AC0000287004109000003020880210900000399
:100AD00003C07C1109000003062023110900000354
:100AE000050020D10900000304C010210900000303
:100AF000044010010900000302A40C0109000003D6
:100B000001540B86090000040818FF890000040640
:100B100014FFC90000040104FFE900000588FFFF7D
:100B20000200000570FFFF02000006FFFF02000048
:100B300006FFFF02000006FFFF02000006FFFF02A3
:100B4000000006FFFF02000006FFFF02000006FF94
:100B5000FF02000006FFFF02000006FFFF02000088
:100B600006FFFF02000006FFFF02000006FFFF0273
:100B700060400FFFFF06C00FFFFF06C00C0000061D
:100B8000C00C000006C00CFFFF04FE7CC00CFFF789
:100B9000F702FBEE44C00CFFFBEFC30E54C00CFF8A
:100BA000FBDFDF027E54C00CFFFBDFDF027E54FC64
:100BB0000CFFF7EFDF0E54FC0CFFEFF7DFEE44CC39
:100BC0000CFF9FFBDFEE7CCC0CFE7FFBC30E00CC4A
:100BD0000CFDFFF7FB7E00CC0CFBFFEFFB7E00FC67
:100BE0000CF7FFDFFB0E00FC0CF7FFDFFBEE00C095
:100BF0000CF7FFEFFBEE00C00CFBFFF7FB0E00C095
:100C00000CFDFFFBFB027E00C00CFE7FFBFB027EA7
:100C100000C00CFF9FF7FB0E00C00CFFEFEF02FBC4
:100C2000EE00C00CFFF7DFFBEE00C00CFFFBDFC3E4
:100C30000E00C00CFFFBEFDF7E00C00CFFFBF7DFF8
:100C40007E00C00CFFF7FBDF0E00C00CFFEFFBDFE8
:100C5000EE00C00CFF9FF7DFEE00C00CFE7FEFDF61
:100C60000E00C00CFDFFDFDF027E00C00CFBFFDFCB
:100C7000DF027E00C00CF7FFEFDF0E00C00CF7FFB5
:100C8000F7DFEE00C00CF7FFFBDFEE7CC00CFBFFD4
:100C9000FBC30E44C00CFDFFF7FB7E54C00CFE7F6F
:100CA000EFFB7E44C00CFF9FDFFB0E54C00CFFEF38
:100CB000DFFBEE44C00CFFF7EFFBEE54C00CFFFB74
:100CC000F7C30E44C00CFFFBFB02DF7E54C00CFFD9
:100CD000FBFB02DF7E44C00CFFF7F702DF0E54C0BF
:100CE0000CFFEFEF02DFEE44C00CFF9FDFDF02EEF0
:100CF00054C00CFE7FDFC30E44C00CFDFFEFFB7E33
:100D000054C00CFBFFF7FB7E44C00CF7FFFBFB025B
:100D10000E54C00CF7FFFBFB02EE44C00CFFFF04B7
:100D2000FE7CC00C000006C00C000006C00C7C7CE1
:100D30000500C00C44440500C00C44440500C00C30
:100D400044440538C00C444406C00C7C7C0554C0A7
:100D50000C00000544C00C00000538C00C00000663
:100D6000C00C000006C00C0000047000C00C38006D
:100D70000002E08838C00C440001110444C00C4457
:100D80000001110454C00C440001110444C00C388B
:100D9000000002E08838C00C0000047000C00C00A5
:100DA0001C000004C00C0063000004C00C00808024
:100DB0000200000238C00C010040007044C00C0169
:100DC0000040E08854C00C020021110444C00C0211
:100DD0000021110438C00C020021110400FC0C0198
:100DE0000040E08800FC0C010040007000CC0C00CA
:100DF00080800200000238CC0C006300000344CC69
:100E00000C001C00000354CC0C0000047044FC0CCB
:100E100038000002E08838FC0C440001110400C0D6
:100E20000C440001110400C00C4400011104040230
:100E3000C00C38000002E0886CC00C000004700494
:100E4000C00C000006C00FFFFF06C00FFFFF06C06A
:100E5000604000000207FFFF028000000407FFFF60
:100E6000028000000407FCFF8000000407FCFF80F4
:100E700000000407FFFF028000000407FFFF02805C
:100E800000000407FFFF028000000407FFFF02804C
:100E900000000407FFFF02800000040FFFFF02C0F4
:100EA0000000040FFFFF02C00000040FFFFF02C09C
:100EB0000000040FFFFF02C00000040FFFFF02C08C
:100EC0000000040FFFFF02C00000040FFFFF02C07C
:100ED0000000040FFFFF02C00000040FFFFF02C06C
:100EE0000000040FFFFF02C0000004FFFF03FE002C
:100EF000000301FFFF0400000301F7FFFF02BF0032
:100F0000000301F3FFFF023F00000303F0FFFC3F7B
:100F10008000000203F3FFFF023F8000000203FF96
:100F2000FF048000000203FFFF048000000207FFAF
:100F3000C00FFFC000000207FE0301FFC000000257
:100F400007F803007FC00000020FE600019FE000E9
:100F500000020FC6000187E00000021F80000002AF
:100F600003F00000021F00000301F00000023E0039
:100F70000004F80000027C00000220007C00000257
:100F80007800000260003C000002FB000002E0016B
:100F9000BE000002F3000002E0019E000002F0002B
:100FA0000002E0001E0001E0000002C0000F00018E
:100FB000E0000002C0000F0001E0000180000F000F
:100FC00001C000018000070003C00001800007800D
:100FD00003C00001000002078003C00003000002FC
:100FE000078003D80003000002378003D800FFC049
:100FF00000378003C0FF01F800078003C000000233
:101000007E00078003C00000021F00078001E0008F
:10101000000207C00F0001E000000203E00F000122
:10102000E0000003F00F0001F00000041F000002C8
:10103000F3000003019E000002FB00000301BE005C
:101040000002F80000043E0000027C0000047C0066
:1010500000023E000004F80000023F00000301F817
:101060000000021F8000000203F00000021FC60003
:101070000187F00000021FE600019FF00000020F50
:10108000F803007FE00000020FFE0301FFE0000014
:10109000020FFF8007FFE000000207FFFF04C0000F
:1010A000000207FFFF04C000000207EFFFFF02DF9E
:1010B000C000000207E3FFFF021FC000000203E0C0
:1010C0007FF81F8000000203E7FFFF029F800000FF
:1010D0000203EFFFFF02DF8000000201FFFF0400B8
:1010E000000301FFFF040000041FFFFF02E00000F7
:1010F000041FFFFF02E00000041FFFFF02E00000EA
:10110000041FFFFF02E00000041FFFFF02E00000D9
:10111000041FFFFF02E00000041FFFFF02E00000C9
:10112000041FFFFF02E00000040FFFFF02C00000E9
:10113000040FFFFF02C00000040FFFFF02C0000009
:10114000040FFFFF02C00000040FFFFF02C00000F9
:10115000040FFFFF02C00000040FFFFF02C00000E9
:10116000040FFFFF02C00000040FFFFF02C00000D9
:10117000040FFFFF02C00000040FFFFF02C00000C9
:10118000027EFF8189898F0600062F29293F1F00D3
:10119000FFFF21213F1E001E3F21213F1E0020FE98
:1011A000FF2121003F3F103030001E3F21213F1E14
:1011B000001F3F20203F1F00BFBF001E3F212121F5
:1011C00000193D2D2F261008FF818102808193B6E2
:1011D0003C6DC98101818102FF181008FF81810DDA
:1011E000FF180808020E7EFFFF027E0E0207087F2E
:1011F000FFCCCC03FF7F0708FFFF02CCCC03FC78B9
:101200009313851353132D130113DB12B512871299
:1012100061123B1216120A18000004080000021C9A
:101220000000021C0000021C0000021C0000021C46
:101230000000021C000002080000040C187FF000EF
:10124000BFF001DFE803E01C07E01C07E01C07E03B
:101250001C07E01C07E01C07DFEBFBBFF7FD7FF777
:10126000FE0C187FF7FEBFF7FDDFEBFBE01C07E08D
:101270001C07E01C07E01C07E01C07E01C07DFEB75
:10128000FBBFF7FD7FF7FE0C180000038000000293
:10129000C0000002E0000002E0000002E0000002E6
:1012A000E0000002E0000002E0000002DFE3F8BF1F
:1012B000F7FC7FF7FE0C187FF7FEBFF7FDDFEBFBB7
:1012C000E01C07E01C07E01C07E01C07E01C07E02F
:1012D0001C07C00BFB8007FD0007FE0C187FF00009
:1012E000BFF001DFE803E01C07E01C07E01C07E09B
:1012F0001C07E01C07E01C07C00BFB8007FD000774
:10130000FE0C187FF0003FF0001FE80000021C00F8
:1013100000021C0000021C0000021C0000021C0055
:1013200000021C001FEBF83FF7FC7FF7FE0C1800D3
:101330000003800001C00803E01C07E01C07E01C5C
:1013400007E01C07E01C07E01C07DFEBFBBFF7FD15
:101350007FF7FE0C180007FE8007FDC00BFBE01CAA
:1013600007E01C07E01C07E01C07E01C07E01C0767
:10137000DFE803BFF0017FF0000003181FE3F83F30
:10138000F7FC7FF7FE0C1800001B1FE3F83FF7FC8B
:101390007FF7FE0C187FF7FEBFF7FDDFE3FBE000F1
:1013A00007E00007E00007E00007E00007E00007B3
:1013B000DFE3FBBFF7FD7FF7FE0015F214CE14ABA1
:1013C00014831460143D141314F013CD130B187F01
:1013D000C000BFC008DFA018E07038E07038E070CF
:1013E00038E07038E07038DFAFD8BFDFE87FDFF07B
:1013F0000B187FDFF0BFDFE8DFAFD8E07038E070B8
:1014000038E07038E07038E07038DFAFD8BFDFE820
:101410007FDFF00B1800000380000002C000000214
:10142000E0000002E0000002E0000002E000000234
:10143000E0000002DF8FC0BFDFE07FDFF00B187F2E
:10144000DFF0BFDFE8DFAFD8E07038E07038E07081
:1014500038E07038E07038C02FD8801FE8001FF0E7
:101460000B187FC000BFC008DFA018E07038E07024
:1014700038E07038E07038E07038C02FD8801FE84E
:10148000001FF00B187FC0003FC0001FA00000022B
:101490007000000270000002700000027000000284
:1014A00070001FAFC03FDFE07FDFF00B18000003CC
:1014B000800008C02018E07038E07038E07038E034
:1014C0007038E07038DFAFD8BFDFE87FDFF00B188F
:1014D000001FF0801FE8C02FD8E07038E07038E0BF
:1014E0007038E07038E07038DFA018BFC0087FC0E7
:1014F00000000B180000181F8FC03FDFE07FDFF0F7
:101500000B187FDFF0BFDFE8DF8FD8E00038E000A6
:1015100038E00038E00038E00038DF8FD8BFDFE87F
:101520007FDFF00428000301800000020783C00071
:1015300000020783C00000020301800000DC18BE27
:10154000184A18E0177717031790163616C4155166
:101550001516283FFFC00000023FFFE0000002DF39
:10156000FFE00003EFFFD00007F7FFB8000FF8001F
:101570007C001FF8007C001FF8007C001FF8007C36
:10158000001FF8007C001FF8007C001FF8007C00A2
:101590001FF8007C001FF8007C001FF8007C001F73
:1015A000F8007C001FF8007C001FF7FFBBFFEFEF87
:1015B00002FFD7FFF7DFFFEFFFFB3FFFEFFFFC3F2F
:1015C000FFC7FFFC16283FFFC7FFFC3FFFEFFFFCF4
:1015D000DFFFEFFFFBEFFFD7FFF7F702FFBBFFEFE8
:1015E000F8007C001FF8007C001FF8007C001FF84A
:1015F000007C001FF8007C001FF8007C001FF80032
:101600007C001FF8007C001FF8007C001FF8007CA5
:10161000001FF8007C001FF8007C001FF7FFBBFFD5
:10162000EFEF02FFD7FFF7DFFFEFFFFB3FFFEFFF1B
:10163000FC3FFFC7FFFC162800000AC0000004E0C2
:10164000000004F0000004F8000004F8000004F8B2
:10165000000004F8000004F8000004F8000004F89A
:10166000000004F8000004F8000004F8000004F88A
:10167000000004F8000004F7FF83FFE0EFFFC7FF5E
:10168000F0DFFFEFFFF83FFFEFFFFC3FFFC7FFFC7E
:1016900016283FFFC7FFFC3FFFEFFFFCDFFFEFFF18
:1016A000FBEFFFD7FFF7F702FFBBFFEFF8007C006F
:1016B0001FF8007C001FF8007C001FF8007C001F52
:1016C000F8007C001FF8007C001FF8007C001FF869
:1016D000007C001FF8007C001FF8007C001FF80051
:1016E0007C001FF8007C001FF0003BFFEFE00017BC
:1016F000FFF7C0000FFFFB0000020FFFFC0000021D
:1017000007FFFC16283FFFC00000023FFFE000007B
:1017100002DFFFE00003EFFFD00007F7FFB8000F84
:10172000F8007C001FF8007C001FF8007C001FF808
:10173000007C001FF8007C001FF8007C001FF800F0
:101740007C001FF8007C001FF8007C001FF8007C64
:10175000001FF8007C001FF8007C001FF0003BFF1A
:10176000EFE00017FFF7C0000FFFFB0000020FFFC4
:10177000FC00000207FFFC16283FFFC00000023FEC
:10178000FFE00000021FFFE00000020FFFD000009A
:101790000207FFB80000047C0000047C0000047C09
:1017A0000000047C0000047C0000047C0000047C39
:1017B0000000047C0000047C0000047C0000047C29
:1017C0000000047C00000207FFBBFFE00FFFD7FF13
:1017D000F01FFFEFFFF83FFFEFFFFC3FFFC7FFFCED
:1017E000162800000AC000000303E000100007F004
:1017F0000038000FF8007C001FF8007C001FF80084
:101800007C001FF8007C001FF8007C001FF8007CA3
:10181000001FF8007C001FF8007C001FF8007C000F
:101820001FF8007C001FF8007C001FF8007C001FE0
:10183000F7FFBBFFEFEF02FFD7FFF7DFFFEFFFFB85
:101840003FFFEFFFFC3FFFC7FFFC16280000020729
:10185000FFFC0000020FFFFCC0000FFFFBE00017C1
:10186000FFF7F0003BFFEFF8007C001FF8007C0062
:101870001FF8007C001FF8007C001FF8007C001F90
:10188000F8007C001FF8007C001FF8007C001FF8A7
:10189000007C001FF8007C001FF8007C001FF8008F
:1018A0007C001FF7FFB8000FEFFFD00007DFFFE05D
:1018B00000033FFFE00000023FFFC00000021628C7
:1018C00000005507FF83FFE00FFFC7FFF01FFFEF8A
:1018D000FFF83FFFEFFFFC3FFFC7FFFC16283FFF6D
:1018E000C7FFFC3FFFEFFFFCDFFFEFFFFBEFFFC792
:1018F000FFF7F702FF83FFEFF80000031FF8000077
:10190000031FF80000031FF80000031FF800000386
:101910001FF80000031FF80000031FF80000031F5A
:10192000F80000031FF80000031FF80000031FF871
:101930000000031FF7FF83FFEFEF02FFC7FFF7DF92
:10194000FFEFFFFB3FFFEFFFFC3FFFC7FFFC000087
:101950000000000000FA000000E000E00028FE287F
:10196000FE282454FE5448C4C81026466C92AA444B
:101970000A00A0C000003844820000824438000001
:10198000105438541010107C101005060000001080
:1019900010101010060600000004081020407C8A79
:1019A00092A27C0042FE0200468A92926244829297
:1019B000926C182848FE08E4A2A2A29C3C52929283
:1019C0000C808E90A0C06C9292926C6092929478EF
:1019D000006C6C000000353600001028448200289E
:1019E00028282828824428100040808A90604C9241
:1019F0009E827C7E9090907EFE9292926C7C8282FF
:101A00008244FE82824438FE92929282FE909090AE
:101A1000807C8292925EFE101010FE0082FE820098
:101A2000040282FC80FE10284482FE02020202FEB2
:101A3000403040FEFE201008FE7C8282827CFE90B8
:101A40009090607C828A847AFE90989462649292EC
:101A5000924C8080FE8080FC020202FCF8040204AA
:101A6000F8FC021C02FCC6281028C6C0201E20C09C
:101A7000868A92A2C2FE8282000040201008048260
:101A800082FE0000204080402001010101018040D1
:101A9000200000042A2A2A1EFE1222221C1C2222B6
:101AA00022041C222212FE1C2A2A2A18107E904090
:101AB00000182525253EFE1020201E0000BE000037
:101AC000000121BE00FE081422000082FE02003E3A
:101AD0002018201E3E1020201E1C2222221C3F24E3
:101AE0002424181824243F003E10202010122A2AF3
:101AF0002A040020FE22003C0202043E38040204B4
:101B0000383C020C023C22140814223805053E0021
:101B100022262A3222106C8200000000FE00008281
:101B20006C1000004080804080FEFEFEFEFE1F7FA5
:101B3000FFE0C0C0E0FF7F1FF0FCFE0E06060EFEB9
:101B4000FCF0000818387FFFFF00000000000000D4
:101B5000FEFEFE0000003070F0E0C0C1E3FF7F3EFB
:101B60000E1E3E7EF6E6C68606063070F0E3C3E73C
:101B7000FF7F3D00181C1E0E06068EFEFCF80001BD
:101B8000030F1E78FFFFFF0070F0F0B03030FEFE54
:101B9000FE300FFFFFFEC6C6C7C7C3C1303C3E0EB6
:101BA00006060EFEFCF81F7FFFE3C3C3E3F37130AC
:101BB000F0FCFE8E06068EFEFCF8C0C0C0C1C7DF7A
:101BC000FEF8E0C000003EFEFEC000000000387CD1
:101BD000FFE7C3C3E7FF7C3878FCFECE8686CEFEE7
:101BE000FC783E7FFFE3C1C1E3FF7F1F181C9E8E80
:101BF00086868EFEFCF0043E0404043C0618200E8B
:101C0000020E0A1E0850781000000E0C080E06186E
:101C1000200A3E000C020C0E320E000000003A00BA
:101C20003000303E143E147E28240812142A160078
:101C300030001C2200221C001C1C1C081C08010275
:101C4000000808080002000408101C221C123E02B2
:101C5000262A12222A1438083E3A2A243E2A2E2006
:101C60002E303E2A3E3A2A3E001400021400081488
:101C700022141414221408202A101C323A1E281E82
:101C80003E2A141C22223E221C3E2A223E28201CD0
:101C9000222C3E083E223E2204023C3E08363E02F2
:101CA000023E103E3E203E3E223E3E28101C221E9A
:101CB0003E2816122A24203E203E023E3C023C3E94
:101CC000043E360836380638262A32003E221008EE
:101CD00004223E00102010010101201000161A0EEF
:101CE0003E120C0C12120C123E0C161A081E280D75
:101CF000151E3E100E002E00012E003E0C12003C60
:101D0000021E181E1E100E0C120C1F120C0C121F9D
:101D10000E10100A1E14103E121E021E1C021C1E63
:101D2000061E120C1218051E161E1A083622003640
:101D3000002236081030203E3E3E000000FE01002A
:101D400001FF01FE01FD02FE00020100010101028E
:101D500001030202FF000000FE010001FF01FE017D
:101D6000FD02FEFF0000000201000101010201036B
:101D70000202FF8B959FA9B2BBC3CBD3DAE1E8EE99
:101D8000F4FA00050B1014191D2125292D313437C3
:101D90003A3D404345484A4C4F51535557585A5C79
:101DA0005D5F6061636465666768696A6B6C6D6ED0
:101DB0006F6F7071717273737474757576767677F0
:101DC000777878787979797A7A7A7A7B7B7B7B7B7A
:101DD0007C7C7C7C7C7C7D7D7D7D7D7D7D7E7E7E36
:101DE0007E7E7E7E7E7E7E7E7E7F7F7F7F7F7F7F0C
:101DF0007F7F7F0000000000000000000000000165
:101E000001010101020202030303040404050506A3
:101E10000607070809090A0B0C0C0D0E0F1011120A
:101E2000131415161718191A1C1D1E2021222425FB
:101E300027282A2B2D2F3032343537393B3C3E4072
:101E400042434547494B4D4E5052545657595B5C9F
:101E50005E606163656668696B6C6E6F70717374E8
:101E600075767778797A7B7B7C7D7D7E7E7F7F7FC0
:101E70007F7F7F00000000000000000101010202DE
:101E8000030304040506060708090A0A0B0C0D0ED5
:101E90000F10111214151617181A1B1C1D1F2022C3
:101EA00023242627292A2C2D2F3032333536383A51
:101EB0003B3D3E404143454648494B4C4E4F5153B4
:101EC000545657585A5B5D5E5F6162646566676928
:101ED0006A6B6C6D6E6F70717273747576777878EB
:101EE000797A7A7B7B7C7C7D7D7E7E7E7F7F7F7F27
:101EF0007F7F7F090909090A0A0A0A0A0B0B0B0CE2
:101F00000C0D0D0E0E0F10101112131314151617C1
:101F100018191A1B1C1D1E1F2021232425262729C2
:101F20002A2B2D2E2F313234353638393B3C3E3F6B
:101F3000404243454648494B4C4D4F5052535556ED
:101F400057595A5B5D5E5F61626364666768696A80
:101F50006B6C6E6F70717272737475767777787957
:101F6000797A7B7B7C7C7D7D7E7E7E7E7F7F7F7FA2
:101F70007F7F7F080878404078080840407808084C
:101F800078404006067F7F7F7F7F7F7FFFFF7F0A4D
:101F9000FCFFFFFFFFFF4002FFFF7FFF05FFFFFF8A
:101FA000FFBE0046323A200046313A2000531C1D45
:101FB0001E00561C1D1E00205600201A1B560053E2
:101FC000544F50004B434E54004B485A001F563D4F
:101FD000002031161F543D00010000000A000000DF
:101FE00064000000E803000010270000A086010044
:101FF00040420F0080969800465720322E34390018
:10200000424D3E040000000000003E000000280099
:1020100000008000000040000000010001000000FE
:1020200000000004000000000000000000000000AC
:1020300000000000000000000000FFFFFF005265EC
:102040007365742043617573653A20004275696C4D
:1020500064204461746520323000204275696C64EC
:102060003A20004F7363696C6C6F73636F70652007
:102070005761746368004F464653455420202046FC
:1020800041535420202020534C4F5700436C6F6322
:102090006B3A202000565265663A202020005643B5
:1020A000433A202020200056696E3A20202020004C
:1020B00052657365743A2020004C6F6769633A205B
:1020C0002000584D4547413A2020726576005469FA
:1020D0006D6572463A200054696D6572433A20007E
:1020E000204275696C643A2000474F0044495343CD
:1020F0004F4E4E454354204348312C434832004E06
:102100004F2058540054696D65202043616C656E02
:1021100064617220205461736B73004C6F616420A2
:102120002020205361766520202020537461727432
:1021300000536E616B6520202020506F6E67202059
:1021400020436865737300436F6E66696720446956
:1021500061676E6F73652041626F757400446967D3
:102160006974616C20576174636800000000004F5F
:102170007363696C6C6F73636F706520000000009F
:10218000002020202047616D657320202020000062
:1021900000000020202053657474696E677320204E
:1021A0000000000000582000485A204D41580031DE
:1021B0002053544F5042495400322053544F504200
:1021C0004954004E4F2050415249545900455645FC
:1021D0004E20504152495459004F444420504152DE
:1021E000495459004D4F56452D20202020202020B5
:1021F000204D4F56452B00534156494E472E2E2E0B
:1022000000245325532853275316531E531F53019D
:102210001020304000E0C0A080C0E000204001401D
:1022200080C0FF004080C0FF402000E0C040200090
:10223000E0C03132303020200032343030202000F5
:102240003438303020200039363030202000313909
:1022500032303020003338343030200035373630DB
:10226000302000313135323030002020314D003502
:1022700030304B003235304B003132354B00203698
:10228000324B002033314B002031364B00202038B8
:102290004B002020344B00312E364B00203830309C
:1022A000002038303000203332300020313630000A
:1022B000202038300020203332002020313600200A
:1022C0002020380020332E320020312E36002030DE
:1022D0002E3800302E3332002020381700203136BF
:1022E00017002033321700203634170031323817E8
:1022F000003235361700353030170020311A1B00F8
:1023000020321A1B0020351A1B0031301A1B0032F4
:10231000301A1B0035301A1B0020302E31002030BF
:102320002E320020302E35002020203100202020A9
:102330003200202020350020203130002020323093
:1023400000202035300035312E320032352E360057
:1023500031322E3800362E343000332E32300031F8
:102360002E363000302E383000352E313200322EED
:10237000353600312E323800302E363400302E33D0
:102380003200302E31360038301A1B00130F0F0F79
:102390000310131210131113010203000F10111177
:1023A000130B171411101906031C1D081F200E0310
:1023B0002213230C0D1416231914080808161613DB
:1023C00016292929190C0D0606060606060F0C0DFE
:1023D0000E00101B12100011150000221011131115
:1023E0000029140016110019001D1E0020210000F4
:1023F0000000090400000016041914080808161645
:102400000F16292929190C0D0606060606060001D5
:102410000102030405060708090A0B0B0C0D0E0F39
:102420001011122223242021131415161718161721
:10243000191A1B1C1D1E1E1F25202053544F5020EF
:10244000200020202020202054494D452B202020F2
:1024500020002020202054494D452D0020434820B5
:102460004F4E2020200020202020204741494E2D83
:1024700020202020002020204741494E2B20004CC6
:102480004F474943204F4E20002020202020534515
:102490004C454354202020002050524F544F434F6E
:1024A0004C00204E4F524D414C2020200020202037
:1024B0002053494E474C4520202000204349524399
:1024C000554C415200204E4F524D414C202020008F
:1024D0002020202053494E474C452020200020201A
:1024E00020204155544F20002056435552534F52FF
:1024F000200020202048435552204348312020000E
:1025000020204843555220434832002048414D4D39
:10251000494E47202020002020202048414E4E20B8
:102520002020002020424C41434B4D414E002020B2
:10253000434831202020200020202020202020433C
:10254000483220202020200020204C4F47494320A3
:10255000002047524944202020002020464C49506A
:1025600020444953504C415920002020494E5645A3
:1025700052542000202056444320202020202000B8
:102580002020205620502D5020200020465245511A
:1025900055454E43592000202053494E45202020C8
:1025A000200020202020535155415245202000205A
:1025B00020545249414E474C4500504F53495449CD
:1025C0004F4E20202000202020494E5645525420B6
:1025D000202000202020204D4154482000504F53FF
:1025E0004954494F4E20202000202020494E564576
:1025F0005254202000202020544849434B302000D2
:10260000204348312000202020202020202020208E
:10261000434832200020202020202020204C4F47FB
:102620004943005452494754595045202000202026
:10263000205452494753524320202000204D4F52EE
:102640004554524947002053434F504520202020F5
:1026500000202020204D45544552202020002020DD
:102660002020202046465420002049512046465430
:102670002020200020204646542057494E444F57E2
:10268000202000202020204C4F472000435552534B
:102690004F525320002020202020444953504C41C9
:1026A000592020002020202020202041574700577B
:1026B0004156452054595045202000202020535792
:1026C00045455020202000204652455155454E4357
:1026D00059002057494E444F5720202000202020E9
:1026E0002045444745202020200020202020534C16
:1026F0004F5045200020204155544F2020202020BD
:1027000000202020545241434B20202000205245DD
:10271000464552454E4345002020414C4C20202048
:10272000202000202020204249545F3020202020FB
:1027300000202020204249545F3100204249545F4C
:10274000322020202000202020204249545F3320C6
:1027500020202000202020204249545F34002042C5
:1027600049545F3520202020002020202042495459
:102770005F362020202000202020204249545F374F
:102780000020455854205452494720002020202042
:102790004249545F30202020200020202020424940
:1027A000545F310020504152414C4C454C20200098
:1027B00020202053455249414C2020002020202039
:1027C000202050554C4C002049324320202020200E
:1027D000200020202020205541525420202020007D
:1027E00020202020205350492000204E4F205055BB
:1027F0004C4C20200020202050554C4C205550207F
:1028000020002050554C4C20444F574E002050453E
:102810005253495354454E5420200020204C494ED9
:102820004520202000202020202053484F57200002
:102830002043504F4C2020202020002020202043E7
:10284000504841202020200020494E564552542017
:1028500053530020535542545241435420002020EA
:102860004D554C5449504C5920200020204156458C
:10287000524147452000414D504C49545544452054
:1028800000202044555459204359434C45200020F2
:1028900020204F46465345540020524F4C4C202098
:1028A00020202000202020454C4153544943202023
:1028B0000020205859204D4F44452000545249478C
:1028C0004D4F44452020002020504F53545452492E
:1028D00047200020202054524947484F4C440020B4
:1028E00045585020202020202000202020204E4F1E
:1028F00049534520202000202020435553544F4D5C
:102900002000205350454544202020200020202036
:10291000204D4F44452020202000202020205241DF
:102920004E47452000535720465245512020202035
:10293000002020535720414D5020202000202053BC
:1029400057204455545920002020444F574E2020F2
:10295000202000202050494E47504F4E4720202035
:10296000002020414343454C000000C80090012056
:10297000034006800C0019D430190032007D00FAA3
:1029800000F401E204C4098813D430190032007D38
:1029900000FA00F401E20400C2EB0B00E1F505804F
:1029A000F0FA0240787D0120BCBE00105E5F00009E
:1029B000D4300000105E5F0008AF2F00D01213006B
:1029C000688909006889090090D0030048E801007F
:1029D00024F40000A8610000D43000006A18000050
:1029E000C4090000E204000071020000FA000001C6
:1029F00000020004000800140028005000C80090E5
:102A0000012003D007F900F301E703C3098713503E
:102A10006C6179657220322057696E7300506C6169
:102A200079657220312057696E7300506C61796549
:102A30007220323A00506C6179657220313A005050
:102A40006C617965723120506C6179657232205306
:102A5000746172740043505520200048756D616E9A
:102A600000506C6179657220323A20004350552045
:102A7000200048756D616E00506C6179657220317F
:102A80003A2000506F6E670047616D65204F766594
:102A90007200506C617965723120506C6179657299
:102AA00032205374617274004350552020004875E1
:102AB0006D616E004E6F6E652000506C61796572BD
:102AC00020323A200043505520200048756D616E39
:102AD000004E6F6E652000506C6179657220313A4E
:102AE0002000536E616B65000801020204040404B7
:102AF0000808080808080808010102010401020189
:102B000008010201040102015375204D6F20547524
:102B100020576520546820467220536100203230CF
:102B2000004C6170200020204C617020002B482058
:102B30002020202020202B4D202020202020202B52
:102B40005300616D00706D00C700DAFF02401AFF8C
:102B50003400D200E6FF033833FF2100990024003F
:102B6000024C4DFF4E00FBFF070004484DFF46009E
:102B700003FF1300022F4DFF4600FCFF5BFF012601
:102B80004DFF46000E01DDFF015E4DFF4600536123
:102B900074757264617920002053756E64617920C8
:102BA0002000204D6F6E64617920200020547565EF
:102BB0007364617920005765646E657364617900A0
:102BC000546875727364617920002046726964618B
:102BD000792020004A414E00464542004D415200B6
:102BE000415052004D4159004A554E004A554C0043
:102BF00041554700534550004F4354004E4F560037
:102C0000444543004A616E75617279000000466573
:102C100062727561727900004D6172636800000034
:102C20000000417072696C00000000004D61790085
:102C30000000000000004A756E6500000000000002
:102C40004A756C7900000000000041756775737467
:102C50000000000053657074656D626572004F631B
:102C6000746F6265720000004E6F76656D6265720A
:102C70000000446563656D62657200001F1C1F1EC5
:102C80001F1E1F1F1E1F1E1F0E0358005300630030
:102C90006F007000650000001803470061006200CB
:102CA0006F00740072006F006E00690063007300B3
:102CB0000000040309040902200001010080FA0950
:102CC00004000002FF000000070581024000000729
:102CD00005010240000012011001FF000040D01663
:102CE000F906000101020001000D1A27333F4A5482
:102CF0005E666D74787C7E7F7E7C78746D665E54D3
:102D00004A3F33271A0D00F3E6D9CDC1B6ACA29ADB
:102D1000938C888482818284888C939AA2ACB6C179
:102D2000CDD9E6F311241FBECFEFCDBFDFE5DEBF67
:102D300000E00CBF10E2A0E0B0E2E6E2F9ED00E056
:102D40000BBF02C007900D92A032B107D9F726E55C
:102D5000A0E2B0E201C01D92A43CB207E1F70E94DC
:102D60009E360C94916C0C940000E0910322F0913B
:102D7000042292E1899F962F969596959695E01953
:102D8000F1091124E90FF11D677080E801C08695F3
:102D90006A95EAF785930895E091082BE395E0930F
:102DA000082BEA95F2E1EF9FE0910322F0910422D3
:102DB000E019F10911240090072BE00DF11D859316
:102DC0000895E091082BE395E093082BEA95F2E152
:102DD000EF9FE0910322F0910422E019F109112400
:102DE0000090072BE00DF11D87930895E091082BCB
:102DF000E395E093082BEA95F2E1EF9FE09103223F
:102E0000F0910422E019F10911240090072BE00D44
:102E1000F11D808308958058860F1BF48FE767FDAE
:102E200080E880580895E8E1F7E1E80FF11D099482
:102E300008C010C018C020C028C030C038C040C072
:102E400048C058990895D099FCCF58990895D09BBF
:102E5000FCCFC7C058990895D199FCCF58990895CF
:102E6000D19BFCCFBEC058990895D299FCCF5899F8
:102E70000895D29BFCCFB5C058990895D399FCCF43
:102E800058990895D39BFCCFACC058990895D49914
:102E9000FCCF58990895D49BFCCFA3C058990895AE
:102EA000D599FCCF58990895D59BFCCF9AC05899D5
:102EB0000895D699FCCF58990895D69BFCCF91C020
:102EC00058990895D799FCCF58990895D79BFCCF6E
:102ED00088C0589908959299FCCF58990895929B6B
:102EE000FCCF7FC0E7E7F7E1E80FF11D099408C0C8
:102EF00010C018C020C028C030C038C040C048C072
:102F000058990895D09BFCCF58990895D099FCCF3B
:102F100068C058990895D19BFCCF58990895D199CC
:102F2000FCCF5FC058990895D29BFCCF5899089563
:102F3000D299FCCF56C058990895D39BFCCF58998D
:102F40000895D399FCCF4DC058990895D49BFCCFD8
:102F500058990895D499FCCF44C058990895D59BA9
:102F6000FCCF58990895D599FCCF3BC05899089546
:102F7000D69BFCCF58990895D699FCCF32C058996A
:102F80000895D79BFCCF58990895D799FCCF29C0B5
:102F900058990895929BFCCF589908959299FCCF27
:102FA00020C083580090240280151CF4589BFACF4F
:102FB00008958A5F0090240280159CF0589BFACFF8
:102FC00008958D570090240280151CF0589BFACF6D
:102FD000089586500090240280151CF4589BFACF67
:102FE000089589E0809340085D9A80B18B3058F451
:102FF00084E100904C0800FEFCCF1092400A8093C0
:10300000010258995D9808958358009064028015D4
:103010001CF4589BFACF08958A5F009064028015D3
:1030200004F3589BFACF08958D57009064028015E1
:103030001CF0589BFACF08958650009064028015CA
:1030400084F6589BFACF08957F93009024027091E4
:1030500024020716072E24F0589BF9CF7F9108957C
:1030600070912402071A8015072ED4F4589BF8CFCC
:103070007F9108957F93009024027091240270152F
:10308000072E24F0589BF9CF7F9108957091240268
:10309000071A0816072E24F4589BF8CF7F9108953D
:1030A0007F919FCF7F930090640270916402071616
:1030B000072E24F0589BF9CF7F91089570916402F8
:1030C000071A8015072E64F7589BF8CF7F91089553
:1030D0007F9300906402709164027015072E24F0B3
:1030E000589BF9CF7F91089570916402071A0816D2
:1030F000072EB4F6589BF8CF7F91089580586058FA
:103100000090240280156CF206165CF2589BF8CFF2
:1031100008958058605800906402801514F20616D5
:1031200004F2589BF8CF0895FF7F0000F57F240339
:10313000D87F4806A67F6A09617F8C0C097FAB0F98
:103140009C7EC8121D7EE215897DF918E37C0B1C5C
:10315000297C1A1F5C7B23227C7A282589792628E2
:1031600084781F2B6B77112E4176FB300475DF338B
:10317000B573BA3654728C39E270563C5E6F173FA5
:10318000C96DCE41236C7A446D6A1C47A668B44968
:10319000CF663F4CE864BF4EF1623351EB609B5306
:1031A000D75EF555B35C4258825A825A4258B35C96
:1031B000F555D75E9B53EB603351F162BF4EE86427
:1031C0003F4CCF66B449A6681C476D6A7A44236CAD
:1031D000CE41C96D173F5E6F563CE2708C39547218
:1031E000BA36B573DF330475FB304176112E6B7739
:1031F0001F2B84782628897928257C7A23225C7BDA
:103200001A1F297C0B1CE37CF918897DE2151D7EB1
:10321000C8129C7EAB0F097F8C0C617F6A09A67F68
:103220004806D87F2403F57F0000FF7FDCFCF57F94
:10323000B8F9D87F96F6A67F74F3617F55F0097FC1
:1032400038ED9C7E1EEA1D7E07E7897DF5E3E37C71
:10325000E6E0297CDDDD5C7BD8DA7C7ADAD7897917
:10326000E1D48478EFD16B7705CF417621CC04751A
:1032700046C9B57374C65472AAC3E270E9C05E6FE2
:1032800032BEC96D86BB236CE4B86D6A4CB6A668C5
:10329000C1B3CF6641B1E864CDAEF16265ACEB601D
:1032A0000BAAD75EBEA7B35C7EA5825A4DA3425837
:1032B00029A1F555159F9B530F9D3351189BBF4E68
:1032C00031993F4C5A97B44993951C47DD937A4402
:1032D0003792CE41A290173F1E8F563CAC8D8C3951
:1032E0004B8CBA36FC8ADF33BF89FB309588112EB0
:1032F0007C871F2B7786262884852825A484232273
:10330000D7831A1F1D830B1C7782F918E381E215FE
:103310006481C812F780AB0F9F808C0C5A806A09B9
:10332000288048060B802403008040C020A060E075
:10333000109050D030B070F0088848C828A868E8CD
:10334000189858D838B878F8048444C424A464E49D
:10335000149454D434B474F40C8C4CCC2CAC6CEC6D
:103360001C9C5CDC3CBC7CFC028242C222A262E26D
:10337000129252D232B272F20A8A4ACA2AAA6AEA6D
:103380001A9A5ADA3ABA7AFA068646C626A666E63D
:10339000169656D636B676F60E8E4ECE2EAE6EEE0D
:1033A0001E9E5EDE3EBE7EFE018141C121A161E125
:1033B000119151D131B171F1098949C929A969E93D
:1033C000199959D939B979F9058545C525A565E50D
:1033D000159555D535B575F50D8D4DCD2DAD6DEDDD
:1033E0001D9D5DDD3DBD7DFD038343C323A363E3DD
:1033F000139353D333B373F30B8B4BCB2BAB6BEBDD
:103400001B9B5BDB3BBB7BFB078747C727A767E7AC
:10341000179757D737B777F70F8F4FCF2FAF6FEF7C
:103420001F9F5FDF3FBF7FFF77278894881F771F2D
:10343000881F771F672F71FD6250EBE2F1E3E80F01
:10344000F61F849171FD819508953F922F925F92AE
:103450004F927F926F929F928F92BF92AF92DF9224
:10346000CF92FF92EF921F930F93DF93CF93FC01C4
:1034700081E090E0A0E8B0E004E0809F6001909FD0
:10348000D00C7C019F938F93EF01A09FC00DD11DA5
:10349000B09FD00DFF93EF93BB24AA2499270081FE
:1034A0001181159507956881798175956795A801B2
:1034B000061B170B460F571F4193519320813181F3
:1034C000359527956A817B8175956795A901261B9E
:1034D000370B460F571F419351930F01E8E2F1E379
:1034E000EA0DFB1D4591559165917591F00195038C
:1034F00020010C031001491E9C03590A300C411C89
:10350000591ED803590A300C411C591EB7034001FB
:103510002E033001891EBE03990A700C811C991E6E
:10352000FA03990A700C811C991E260C371C481C42
:10353000591C49925992B50320012C031001491ED0
:10354000BC03590A300C411C591EDA03590A300CCD
:10355000411C591E970340010E033001891E9E0332
:10356000990A700C811C991EF803990A700C811C31
:10357000991E261837084808590849925992AC0CE8
:10358000BD1CB1FE8CCF04E0A09FC00DD11DE00D8D
:10359000F11DB09FD00DF00D81E0E81AF90A09F095
:1035A0007BCFEF91FF918F919F91880F991FB695D7
:1035B000A795109609F060CFCF91DF910F911F91E1
:1035C000EF90FF90CF90DF90AF90BF908F909F9043
:1035D0006F907F904F905F902F903F9008950002E2
:1035E000030405060708090A0B0C0D0E0E0F3F9287
:1035F0002F925F924F927F926F929F928F92BF9283
:10360000AF921F93DF93CF935C01EB0160E470E016
:10361000E8E2F3E3992710E844991127A591BB2725
:10362000AA0FBB1FAA0FBB1FAA0DBB1D2D913D9159
:103630004D915D91B30320012A031001491EBA0385
:10364000590A300C411C591EBA03590A300C411C4E
:10365000591ED50340014C033001891EDC03990A31
:10366000700C811C991EDC03990A700C811C991E38
:10367000260C371C481C591C6624772488242227D2
:103680003327442770E1220F331F441F220C331CC1
:10369000441C551C661C771C881C220C331C441CC3
:1036A000551C661C771C881C26153705480528F410
:1036B0002395621A730A840A23957A9521F7469511
:1036C000379527951124439B1FC06217730710F08D
:1036D00020E020C0261B370BFF93EF93EEEDF5E3C0
:1036E00040EF37FD04C0221F331F4051FACF330F84
:1036F0003695369536953695E30FF11D5491450F65
:10370000342FEF91FF9106C0220F331F220F331F7A
:1037100008F43FEF39931A9509F080CFCF91DF91EC
:103720001F91AF90BF908F909F906F907F904F9020
:103730005F902F903F900895EF92FF920F931F9309
:10374000CF93DF930E949125D0E010E0F12EC0E0EE
:103750009EE0E92EED0EF0FC08C00FEF2FE02C0FDD
:103760004E2D6C2F8D2F0E94CA26F394C05FC03857
:1037700091F7175FD15F183449F711E000E0D1E00D
:10378000C0E02FEF210FC3FF04C0C95F0E5FD1E07F
:103790002AC0EC2FF0E0EA59FF4DE081EF70F0E035
:1037A000E050F04E8081E0ECE80FE1F02170E7306E
:1037B00028F0211109C0EAEBE80F09C0211106C069
:1037C000E6ECE80F22E003C021E001C023E0F0E0D6
:1037D000EE0FFF1FE253FA4F45915491602F8D2F4A
:1037E0000E94AA2BD15FCF5F1F5FC7FFCACFDF91B7
:1037F000CF911F910F91FF90EF9008950F931F931A
:10380000411107C0062F10E0080F111D0F5F1F4F59
:1038100006C0413041F4062F10E0080F111D017061
:103820001127019504C001E0423009F000E06295E3
:10383000607F9FE0899F802D11242EE0260F4DE0B0
:10384000480F6F5F8F5F0E949D261F910F91089513
:103850002F923F924F925F926F927F928F929F92A0
:10386000AF92BF92CF92DF92EF92FF920F931F938E
:10387000CF93DF93CDB7DEB72597CDBFDEBF809165
:103880002E3C90912F3C9C012252310920932E3CDA
:1038900030932F3C2E523B4260F480932E3C909309
:1038A0002F3C80910E2B90910F2B91958195910932
:1038B000D1C48091E7209091E8202091FE203091A2
:1038C000FF2020930E2B30930F2B2091F620309168
:1038D000F7202093102B3093112B2091F42020936C
:1038E0001A2B2091FD2020931B2B2091EE2020935A
:1038F0001C2B2091F12020932D2B019780930C2BD2
:1039000090930D2B8091ED2058E185278093ED2039
:1039100010922C2B1092202B10922B2B85C0433011
:1039200008F046C480912B2B80931F2B8093252B6E
:1039300080912C2B80788093212B8091202B8330B9
:1039400008F07EC080E49FE18093182B9093192BA0
:103950008091182B9091192B919581959109209127
:103960000E2B30910F2B821793070CF0A0C0809183
:10397000202B833008F0A3C02091102B8091112BB5
:103980002093122B8093132B8091622090916320BF
:10399000A0916420B09165200197A109B10980939D
:1039A000622090936320A0936420B0936520E091FF
:1039B000252BF0E0EA59FF4DE081E093232B809125
:1039C000ED208E2309F07EC08091252B875F8777BD
:1039D0008093252B90911F2B8913E9CF8091122B77
:1039E0009091132B9C012854314E21373D4318F000
:1039F00022E62093202B41E050E02091182B3091BB
:103A0000192B20343F4111F040E050E09C01205C34
:103A1000304E242B352B232B09F0C7C320E080E048
:103A20002093122B8093132B8091202B41E0480F81
:103A30004093202B90911C2B891708F473CF6FCFE4
:103A4000A0912E3CB0912F3CECE0FBE282E2019091
:103A50000D928A95E1F720910E2B30910F2B88273C
:103A60009927821B930B8093E7209093E82081E0B5
:103A700090E0821B930B8093FE209093FF20809117
:103A8000102B9091112B9195819591098093F6209F
:103A90009093F72090E89093F4201092FD2080916D
:103AA000202B83508093EE201092F120E8CE2091BD
:103AB000F820243208F05BCF282F892F61CF20EC2B
:103AC00080EE5ECFE770E093242BE0931D2BF0E0B7
:103AD000EA54FA4FE491E0931E2BC2C0F0911A2BE6
:103AE0008F2F90E0DC01AA59BF4D2C9130E0AC0142
:103AF00040585109242335238E2E912C232B09F075
:103B0000CCC0F090122B6091132BF092122B60938B
:103B1000132B7091242BDD24D394733008F0D12C17
:103B2000EF1709F4CAC0A091292BB0E0AA59BF4DE4
:103B30002C9120932A2BE090ED20A090252B4A2C4D
:103B4000512C11E0211110E0812F90E0F401E419D3
:103B5000F509E770FF2741E050E0EF2B11F040E05E
:103B600050E0481B590BED2DF0E04E235F23322F20
:103B70003E21432B452B09F073C0E22FE770F0E0A4
:103B8000EA53FA4F45915491207C30E0E5E24E0231
:103B9000200D311D11242093EF203093F02037FFAA
:103BA00094C0F0E42F2EFFE13F2E2092122B309292
:103BB000132B6091202B40910E2B50910F2B24162C
:103BC00035060CF085C0613009F486C04091102B99
:103BD0005091112B4093142B5093152B462F50E0EE
:103BE000481B590B423051050CF07AC08091142BC0
:103BF0009091152B2091122B3091132BE091252BB6
:103C00002817390774F48093122B9093132BE093A9
:103C10002B2B8091272B80789091262B892B8093BA
:103C20002C2B8091212B882309F45EC21092212B2A
:103C30008091252B8093262BA0E8A093282BA0937E
:103C4000272B0091212B002311F1E0912C2BE02751
:103C5000E093262BE093292B8E2F887809F43ECF12
:103C6000E0911D2BE7FF04C08091242B833048F4A2
:103C7000E0911E2BEF5FE0931E2BF0E0EA55FA4F28
:103C8000E491E195E0931D2BE111D2CF9DCEE0911F
:103C90001D2B8091262BE80FDBCF9401281B390BBD
:103CA000223031050CF02DCF8819990902970CF0BC
:103CB00028CFA0E4FA2E6FE128CFDD2009F433CF1E
:103CC000B0E1EB27E093292B2ECF2F2C362E6DCF92
:103CD000623008F478CF82CEA901471B51097ACF10
:103CE000672E712CB090F820FF24F3944DE14B1512
:103CF00008F0F12CA301445051094F29C2018A59FF
:103D00009F4D8C839D83F401EA59FF4DEA83FB8329
:103D1000452BD1F081E090E0F7E0FB1510F080E05A
:103D200090E0A30147505109482B592B452B79F0BE
:103D3000763080F4EC81FD81808590E0EA81FB8122
:103D40004085841B910908C087EF9FEF05C084EF71
:103D50009FEF02C080E090E08093142B9093152B8E
:103D60004091282BEC81FD8110821C92E42FF0E021
:103D7000EA59FF4D1082F091232BF9835F2F506297
:103D8000AA81BB815C93487869F4E091272BF0E02D
:103D9000EA59FF4D46E04E0D40834E968093142B1A
:103DA0009093152BDD2009F489C0C090142BD0907E
:103DB000152BB694B694EB2DF0E0EC83FD83C20195
:103DC0000297AC0148785527452B69F4FC01EA5964
:103DD000FF4D51E040E08081F9818F1301C050E038
:103DE000852F942F02C081E090E0A2014E5F5F4FCB
:103DF000FA01E878FF27EF2B69F4DA01AA59BF4DE1
:103E0000F1E0E0E04C915981451301C0F0E04F2F03
:103E10005E2F02C041E050E0840F951F41E050E06A
:103E2000481B590B80E1A826EA2DF0E0EA59FF4D26
:103E3000A081B0E08E2D90E08496E1E0F0E0A8173C
:103E4000B90711F0E0E0F0E04E1B5F0BA9E0A49F82
:103E5000C001A59F900D1124EC81FD818E0F9F1F45
:103E60008C0D9D1D8093142B9093152B80911D2BF1
:103E7000A401480F511D87FD5A95CA01019687FF7D
:103E800007C0E7E88E2EE2E09E2E861897080BC04A
:103E900050E1850E911C89818072C82ED12C8C2016
:103EA0009D20880C991CAA81BB818C91880D8C93D4
:103EB000820E931E8092EF209092F0202091102B82
:103EC0003091112B8091EF209091F020280F391F15
:103ED0008091142B9091152B820F931F8093142B9C
:103EE0009093152B80910C2B90910D2B91012816FE
:103EF00039060CF49C012093162B3093172B81E08C
:103F0000633008F080E0F82A8091182B9091192BEB
:103F100080549F418F29892B91F02FEF260F91E03C
:103F2000733008F490E081E0663008F480E0892383
:103F300091E0011190E089238123622F681B609337
:103F4000222B8091142B9091152B2091162B3091C0
:103F5000172B2817390724F02091222B2330D0F17A
:103F6000A0912E3CB0912F3CECE0FBE282E201906C
:103F70000D928A95E1F780910E2B90910F2B9195E0
:103F8000819591098093E7209093E8208091162BEA
:103F90009091172B9195819591098093FE20909394
:103FA000FF208091142B9091152B9195819591096B
:103FB0008093F6209093F7208091272B8093F42014
:103FC0001092FD208091222B8093EE2081E080933F
:103FD000F12055CC8093FB209093FC208091FB2016
:103FE0009091FC2041E020910C2B30910D2B281753
:103FF00039070CF040E02091222B2F5F2093222BD9
:104000003091202B231710F441119BCF8093142B58
:104010009093152B20911B2B4091252BE091262B63
:104020005091272B2223F1F12091E9203091EA20B1
:104030002034BFE13B07B1F1803C904E99F1842FD1
:1040400090E08217930771F58091F520E8132AC05C
:104050002091EF203091F0208091102B9091112B26
:10406000919581959109821B930B8093EB209093FE
:10407000EC205093F220220F232F221F330B80912C
:10408000F820820F8093F82080912E3C90912F3C55
:10409000829680932E3C90932F3C80910E2B909192
:1040A0000F2BD8C0A091282BB0E0AA59BF4D80910A
:1040B000ED208A5F8C93A52FB0E0F0E0EA59FF4D28
:1040C0001082AA59BF4D1C92E42FF0E0EA59FF4D2F
:1040D0008091232B8083E091292BF0E0EA59FF4D5A
:1040E00080912A2B808382CDF0911D2B7091262BFD
:1040F0008F2F992787FD90958E0F911D871B910912
:104100002091232B2072822B6091242B11E06330AD
:1041100008F410E020911E2B30E027503109462F83
:1041200050E044505109242B352B232B11F021E072
:1041300025C04F2F45954770ED5F4E274093282BA4
:10414000E42FF0E0EA59FF4D208130E05091ED205E
:10415000251B31092630310551F7A2E0A427B0E034
:10416000AA59BF4DE1E0E427F0E0EA59FF4D2C9158
:104170003081232B31E009F430E0232F1223812BEF
:10418000892B51F091E0653008F090E080912A2B66
:10419000890F80932A2B02C07093272BA9988091B6
:1041A0002A2B882309F44DCD5BCD282F892F38CCBD
:1041B00021E030E08091E9209091EA2080349F4115
:1041C00011F020E030E080911B2B90E082239323BC
:1041D000892BE1F0423650F4809162209091632067
:1041E000A0916420B0916520B7FF9CCB80912B2BD0
:1041F00090E08093E9209093EA2080912C2B8777A0
:104200008093F520B3E0B093202B8CCB8091ED20F0
:10421000E8E18E278093ED2080912E3C90912F3CF9
:10422000829680932E3C90932F3C2091122B3091BC
:10423000132B81E090E04091102B5091112B24170B
:10424000350714F080E090E0820F931F8093122BCB
:104250009093132B8093F9209093FA20E0912E3CB9
:10426000F0912F3C2CE3EE32F20731F180912D2BAF
:1042700081110CC0ACE0BBE282E201900D928A9504
:10428000E1F78091F9209091FA205ECB8130A1F482
:10429000ACE0BBE282E201900D928A95E1F7809159
:1042A000F9209091FA209195819591098093FB20B6
:1042B0009093FC20A99A92CEA9982596CDBFDEBFF7
:1042C000DF91CF911F910F91FF90EF90DF90CF90F2
:1042D000BF90AF909F908F907F906F905F904F9026
:1042E0003F902F9008952F923F924F925F926F923E
:1042F0007F928F929F92AF92BF92CF92DF92EF9276
:10430000FF920F931F93CF93DF938EE29CE38093F2
:104310002E3C90932F3C509880E18093ED2010929A
:10432000F8201092EB201092EC201092F2201092C4
:10433000F9201092FA20E6E6F0E2119220E2E73E40
:10434000F207D9F788E08093F3208091F52048E0C8
:1043500062E179E0415008F43FC0842F90E0FC0115
:10436000E254FA4FE491DC01AA59BF4DED01C05966
:10437000DF4F28E02E0F2883E05FEC9350966C937C
:104380005097FD01E05AFF4F70830497889FC02D1E
:10439000112458E05150F0F0E52FF0E09F01220F7A
:1043A000331F2750310904E0EE0FFF1F0A95E1F794
:1043B000EA0FFB1F229FC001239F900D900D112437
:1043C00097FD03969C0135952795359527952C0FDC
:1043D0002087E0CF8FEFBECF8093F5204093F3206E
:1043E000CAE0DBE233243A9444244A9477247A9452
:1043F00088248A94512C612C912C10E080E4E82EC2
:104400008FE1F82E93E0292E8091F9209091FA20E7
:10441000823C904E0CF40DC150990BC10E949C1B24
:104420008BE2CA30D80749F400E027E04FE762E0AA
:104430008AE70E949D260FEF08C00FEF27E04FE7A5
:1044400062E08AE70E949D2600E02DE74FE768E7DB
:104450008AE70E949D2697E0941538F0931528F07E
:1044600041E0632D842D0E94FE1B7D99509A888126
:10447000843009F071C05698669B3EC066987D995D
:10448000509A7C99115078991F5F7F999A947E99E0
:1044900093947A9B31C018110CC097100AC040E069
:1044A000692D812F0E94FE1B77247A9488248A9498
:1044B00023C02FEF821611F072120DC020E1929EE0
:1044C000C0011124810F911D8093E9209093EA206F
:1044D000792C812E0CC0812F90E1999E800D1124A2
:1044E0008093F520569A77247A9488248A9441E020
:1044F000672D882D0E94FE1B1F3F21F0183018F0F9
:1045000010E001C017E02FEF921629F087E089151F
:1045100020F4912C02C007E0902E611202C05914C1
:1045200059F0681002C041E0571040E0652D862D1B
:104530000E94FE1B592C612E42E0692D812F0E94A2
:10454000FE1B0E94E730E899FECFAA988895509903
:104550002FC0569B91CF2CC0E092E920F092EA2028
:1045600040E850E00090092B02C0440F551F0A9408
:10457000E2F75A01CC24B7FCC094DC2CA092622054
:10458000B0926320C0926420D09265200E941E6B7E
:10459000B601A501480F511D611D711D4093622098
:1045A0005093632060936420709365200E94E730ED
:1045B00080EC90EE8093E7209093E820E092FE203C
:1045C000F092FF208091EB209091EC208093F620D8
:1045D0009093F7208091F2208093F42091E09093C3
:1045E000FD202092EE201092F1200E94281C88814C
:1045F000843069F48091F9209091FA2080349F41B1
:1046000021F4CA50DB4231F408C0AA9A08C0CA504B
:10461000DB4219F0CAE0DBE202C0CBE0DBE28091D2
:10462000F520282F2770422E382E3294BFE03B22EF
:10463000EBCE7D99509A509BE7CEDF91CF911F91A1
:104640000F91FF90EF90DF90CF90BF90AF909F9031
:104650008F907F906F905F904F903F902F90089534
:10466000DF92EF92FF920F931F93CF93DF93589AAD
:1046700050981092092B0E947825C2E002E382E054
:10468000F82E93E0E92ED4E02FE0D22E15E0589BCF
:1046900063C05898669B16C066987B99CF5FC430FC
:1046A00008F0C0E07A9B09C08091092B8F5F80934E
:1046B000092B803110F01092092B79990E947321F7
:1046C0007D99509A0093082B1092072B80EA95E071
:1046D0000E9461291092082BF092072B88E995E03F
:1046E0000E946129C0FF07C082E995E00E9461290C
:1046F00010930A2B06C08CE895E00E946129D093A4
:104700000A2B1092082BE092072B84E895E00E9478
:104710006129C1FF07C08EE795E00E9461291093CF
:104720000B2B06C088E795E00E946129D0930B2BE4
:104730001092082BD093072B80E795E00E94612907
:104740008091092B0E94EC291092082BD092072B04
:104750008AE595E00E9461290E94E730E899FECF42
:104760008895509B94CF589ADF91CF911F910F91CC
:10477000FF90EF90DF9008958091295390912A53F4
:10478000A0912B53B0912C5326E034E0239FF001ED
:104790001124E852F04E459155916591749184171A
:1047A0009507A607B70710F4215078F734E0239F48
:1047B000F0011124E053F04E4591559165917491AB
:1047C000619B05C0841B950BA60BB70B14C0629BA5
:1047D00005C0840F951FA61FB71F0DC0223009F416
:1047E00027E084E0289FF0011124EC52F04E8591DF
:1047F0009591A591B4918093295390932A53A093B6
:104800002B53B0932C5308950F931F93CF93DF93A3
:1048100080912553181614F4109225538091275334
:10482000811103C081E08093275380912953909197
:104830002A53A0912B53B0912C5384369105A10596
:10484000B10528F484E690E0A0E0B0E009C0813230
:104850009C4BAE4BB10560F080E29CEBAEEBB0E060
:104860008093295390932A53A0932B53B0932C53A6
:104870004091295350912A5360912B5370912C539E
:1048800036E020E480E09AE6A8E1B0E084179507DE
:10489000A607B70710F52093002180912653823098
:1048A00009F44BC058F4882351F1813009F078C0E5
:1048B000C9E0DBE20C2F10E41C1B37C08430A9F0E8
:1048C000C8F0853009F06CC040E051E060E070E075
:1048D00089E09BE20E94356C63C0B695A7959795D9
:1048E00087952695315091F6D6CFA9E0BBE280E0BE
:1048F00090E042C0E9E0FBE280E09FE72DC08091BC
:1049000060099091610929E03BE2F90145E552E631
:10491000BC01649FC001659F900D749F900D112490
:10492000019691932E13F4CF3BC08C2F810F0E94E0
:10493000141A89930C13F9CF33C089E09BE2FC0170
:10494000382F2E2F281B27FF02C02FE701C021E898
:1049500021933E13F6CF24C0803839F0282F220F40
:10496000392F321B31938F5FF7CF982F990F9F57B5
:1049700091938F5FD1F714C0282F8038910541F0B3
:10498000FC01ED58F24EE491E195ED930196F4CFE0
:10499000E22FF0E0ED50F34EE491ED932F5FC1F77D
:1049A0002091275330E080E091E0821B930B880F29
:1049B000991FD901AA0FBB1F69E07BE2FB0140E010
:1049C00050E0162F252F30E00081275F344DE9019C
:1049D000D395088301915F3F81F021962081332791
:1049E00027FD3095200F311D07FD3A9537FF02C096
:1049F0002F5F3F4F359527952883480F591F2E2F3E
:104A00003E2F361B303809F4CD011213DBCFC09195
:104A10000021AC2FB0E020E13EE54FE550E00E94E0
:104A2000196C2091295330912A5340912B53509166
:104A30002C530E94B46B2150310986E08093A20070
:104A4000C23010F081E001C082E0809340092093E1
:104A50007609309377091C2F169509F411E0D0E000
:104A6000C0E020912553ED2FF0E0E75FF34D30815A
:104A7000A303812D1124609128530E940C17EC2F61
:104A8000F0E0EF5FFE4D8083CF5FD10FC111E9CF22
:104A9000599887E08093A200DF91CF911F910F91E9
:104AA000089585EF9AE2809303229093042285E093
:104AB00092E28093012290930222089551990AC0B4
:104AC000519A85EF9AE2809303229093042285E025
:104AD00092E209C0519889EF93E380930322909367
:104AE000042289E09BE280930122909302220895A0
:104AF000519B03C087E092E202C08BE09BE21092E0
:104B0000082B1092072B40E09C01205F3F4FFC01D7
:104B10001192E217F307E1F742964F5F4038A1F791
:104B2000089587E092E29C01205F3F4FFC011192C3
:104B3000E217F307E1F742962BE28730920799F7E5
:104B40001092082B1092072B08958BE094E39C01A0
:104B5000205F3F4FFC011192E217F307E1F7429605
:104B60002DE38B30920799F71092082B1092072BA8
:104B70000895EF92FF920F931F93CF93DF931F92AD
:104B8000CDB7DEB7209103223091042287FD30C0DB
:104B900067FD2EC0E62EE694E694E694F12C92E1B1
:104BA000899FE018F1081124E20EF31E677000E8F7
:104BB00010E002C0159507956A95E2F7411105C00E
:104BC0000095F701808180230BC0413021F4F7016B
:104BD0008081802705C04F3F29F4F7018081802B19
:104BE000808306C049830E94046B49818417A8F31F
:104BF0000F90DF91CF911F910F91FF90EF9008954B
:104C00000F931F93CF93DF93182F062FEA019E0176
:104C1000FE01949122962F5F3F4FF90164919F3FCF
:104C200031F0600F892F810F0E94B516F0CFDF9110
:104C3000CF911F910F910895CF92DF92EF92FF9243
:104C40000F931F93CF93DF93182F062FC42FD22FCC
:104C5000C81BD61BD7FF04C0D195EE24EA9402C02E
:104C6000EE24E394C7FF04C0C195DD24DA9402C0AA
:104C7000DD24D394602F812F0E94B516CD1788F0C4
:104C8000FC2EF694C12CCC16E1F0FD0EFC1610F0B3
:104C9000FC1A0E0D1D0D602F812F0E94B516C394B6
:104CA000F2CFFD2EF694C12CFC0EFD1610F0FD1A6D
:104CB0001D0D0E0D602F812F0E94B516C394CD12CD
:104CC000F3CFDF91CF911F910F91FF90EF90DF9085
:104CD000CF9008950F931F93CF93DF931F921F924E
:104CE000CDB7DEB7082F962F142F803C20F487FF16
:104CF00003C00FE701C000E0903C28F497FD9FE758
:104D0000091738F001C090E0802F89279827082FD5
:104D10000927901758F0422F612F802F2A839983FB
:104D20000E94B9250F5F99812A81F3CF0F900F90D0
:104D3000DF91CF911F910F910895FF920F931F93D1
:104D4000CF93DF93182FC62FF42ED22F202F462F6C
:104D50006F2D0E946A26202F4D2F6F2D812F0E94CC
:104D60006A26CD1718F0CD27DC27CD27DC1760F099
:104D7000402F6C2F812F0E94B925402F6C2F8F2D33
:104D80000E94B925CF5FF2CFDF91CF911F910F9194
:104D9000FF900895FF920F931F93CF93DF93D82F27
:104DA000142FC22F621718F06227C6276C27C61768
:104DB00058F0FF24F394F60E202F462F612F8D2FED
:104DC0000E946A266F2DF3CFDF91CF911F910F9133
:104DD000FF9008952F923F924F925F926F927F9231
:104DE0008F929F92AF92BF92CF92DF92EF92FF92FB
:104DF0000F931F93CF93DF93CDB7DEB72A97CDBF25
:104E0000DEBFF82ED62E142F922E261730F4D2267F
:104E10009D24D924F4261F25F126ED1430F4DE2438
:104E2000ED24DE24F0260F25F026E91430F49E242C
:104E3000E9249E24102701271027712E7F1877FE62
:104E400003C071945FEF01C051E0492C4D18B02EA2
:104E5000BF18B7FE04C0B19455245A9402C055241B
:104E600053943E2C3D1874142CF474244724742459
:104E700031E001C030E0B31434F43B24B3243B24CC
:104E80006624639401C0612C8B2C8594D91409F499
:104E900071C0272C2594AF2C90E0672D772767FDF4
:104EA000709569877A87AB2DBB27A7FDB095AB833B
:104EB000BC83692F70E0A985BA856A177B070CF05F
:104EC00059C0AF1418F42F2D4A2D02C02A2D4F2D92
:104ED00070E0E92FF0E0A985BA85EA17FB071CF41A
:104EE0009F5F240C06C019821DC027183323D9F3F5
:104EF000752FE22DF0E0A985BA85EA17FB07ACF71C
:104F00003111F1CFA50EE5CF8B18662069F05982DB
:104F1000E82DF0E0AB81BC81EA17FB07ACF761102C
:104F200003C0F50C830CF4CF8A2D4A1508F4842FA6
:104F30006A2DA21608F4622F6F1508F46F2DF8166B
:104F400008F48F2D2C2D4D2D3E835F837D83988714
:104F50000E946A263E815F817D819885311101C062
:104F6000A50EA70E611001C0F50C7981F70ED39440
:104F7000D9109FCFA02EA11AA7FE03C0A1949FEF26
:104F800001C091E02E2C2918A21434F42A24A22462
:104F90002A244424439401C0412C7A2C7594912CEA
:104FA000EA2DFF27E7FDF095EB83FC832B2D3327BC
:104FB00027FD309529833A83292D30E0EB81FC8150
:104FC000E217F3070CF45BC01F1518F44F2DE12F07
:104FD0000FC0412FEF2D0CC0720C272D30E06B81DC
:104FE0007C812617370764F441100FC0190F939482
:104FF000292D30E0AB81BC812A173B076CF305C03B
:105000007A18442011F0392F01C030E050E00EC072
:105010008B18662079F0552D682D70E0A981BA8132
:105020006A177B07ACF7611005C0F50CF01611F09C
:10503000830CF2CF812FE11708F48E2F612F141704
:1050400008F4642F6F1508F46F2DF81608F48F2DEF
:105050002C2D4D2D3E835F8398870E946A263E81CA
:105060005F819885411001C0190F130F611001C0B5
:10507000F50CF50ED394ED1410F093949DCF2A9671
:10508000CDBFDEBFDF91CF911F910F91FF90EF90C9
:10509000DF90CF90BF90AF909F908F907F906F9058
:1050A0005F904F903F902F900895EF92FF921F9343
:1050B000CF93DF93182F8A3081F1282F30E02451CD
:1050C0003109F901EE0FFF1FE20FF31FEA50F44E12
:1050D0007F0183E0E80EF11CEF0121968491619B32
:1050E00002C0806880950E94CC16CE15DF0511F0B5
:1050F000FE01F2CF1C3111F486E018C01D3149F4D5
:105100008EE00E94CC168091082B8F5F8093082B35
:105110000FC01A3111F488E009C08091082B87FD77
:1051200007C0619902C080E001C08FE70E94CC16E1
:105130008091082B87FD02C01A3039F41092082B99
:105140008091072B8F5F8093072BDF91CF911F9169
:10515000FF90EF900895EF92FF920F931F93CF93DC
:10516000DF938E3229F486E00E94F61686E00CC0AA
:105170008D3269F480EC0E94F61680EC0E94F616DF
:1051800080EC0E94F61680EC0E94F61639C0803240
:1051900021F48091082B8A5F36C094E1899FE00159
:1051A0001124C25DD44E8091072B81508093072B30
:1051B0008E01065F1F4FFE017F018FEFE81AF80A8C
:1051C00084910E94F616E016F10611F0F701F4CF73
:1051D0008091072B8F5F8093072B8091082B8A503B
:1051E0008093082B649678019FEFE91AF90AF80179
:1051F00084910E94F616EC16FD0611F08701F3CF9C
:105200008091082B8E5F8093082BDF91CF911F91A7
:105210000F91FF90EF900895CF93DF93FC0184915D
:10522000EF012196882321F00E945528FE01F7CF37
:10523000DF91CF910895FF920F931F93CF93DF9348
:10524000F82E8AE0F81205C08091082B87FF1EC057
:1052500024C02F2D30E02052310985E0829FF001DB
:10526000839FF00D1124E25BF64E8F010B5F1F4F01
:10527000EF0121968491619B02C0806880950E9415
:10528000F616C017D10701F3FE01F2CF619902C0F3
:1052900080E001C08FE70E94F6168091082B87FD01
:1052A00003C08AE0F81207C01092082B8091072BE8
:1052B0008F5F8093072BDF91CF911F910F91FF900C
:1052C0000895CF93DF93FC018491EF012196882309
:1052D00021F00E941B29FE01F7CFDF91CF910895A5
:1052E000CF93DF93C82F843660F0DCE9D80FD43633
:1052F00020F0D8E3D80F82E301C081E30E94552853
:10530000CD2F80E3CA3018F08F5FCA50FBCF0E94C8
:10531000552880E38C0FDF91CF910C945528FF9294
:105320000F931F93CF93DF93EC0180E3C03197E29B
:10533000D90720F08F5FC051D742F8CF60E3F62E37
:10534000C83E93E0D90720F0F394C85ED340F8CF6D
:1053500000E3C436D10520F00F5FC456D109F9CF60
:1053600010E3CA30D10518F01F5F2A97FACF8033B7
:1053700011F00E941B298F2D0E941B29802F0E9453
:105380001B29812F0E941B298C2F805DDF91CF91DB
:105390001F910F91FF900C941B29CF93DF93C82F7F
:1053A000843660F0DCE9D80FD43620F0D8E3D80F8B
:1053B00082E301C081E30E941B29CD2F80E3CA3024
:1053C00018F08F5FCA50FBCF0E941B2980E38C0F1F
:1053D000DF91CF910C941B29CF93C82F80E3CA3063
:1053E00018F08F5FCA50FBCF803309F480E20E942F
:1053F0001B2980E38C0FCF910C941B29CF93C82FCE
:1054000082958F700E94456B0E9455288C2F8F705B
:105410000E94456BCF910C945528CF93C82F82954D
:105420008F700E94456B0E941B298C2F8F700E94E9
:10543000456BCF910C941B29EF92FF920F931F9312
:10544000CF93DF93CDB7DEB72C97CDBFDEBF8E01F4
:105450000F5F1F4F98E0F80111929A95E9F780933A
:10546000082B6093072B57FF15C05095409530953A
:1054700021953F4F4F4F5F4F8DE262990EC02987B4
:105480003A874B875C870E94552829853A854B854A
:105490005C8514C080E2629B07C029873A874B87EE
:1054A0005C870E94AB28F1CF29873A874B875C87BE
:1054B0000E9455285C854B853A852985619940C0B5
:1054C0002036F3E43F07F9E94F07FBE35F07DCF51C
:1054D000211581EE380785EF480785E0580754F01D
:1054E000CA01B90120EA36E841E050E00E94D66BDB
:1054F000F12C2EC0CA01B9012038E6E93E07E8E9DF
:105500004E0751054CF020E137E240E050E00E94A8
:10551000D66BFF24F3941CC0203432444F40510515
:105520004CF028EE33E040E050E00E94D66BA2E061
:10553000FA2E0EC024E630E040E050E00E94D66B28
:10554000F3E0FF2E05C0F12C2FE037E240E050E001
:1055500067E084E0689FF0011124E852F04E8591E5
:105560009591A591B491F801E60FF11D281739071F
:105570004A075B0740F070817F5F7083281B390BFF
:105580004A0B5B0BF3CF615020F7619B03C0E7E050
:10559000EE2E02C073E0E72E8E2D90E0F801E80FAA
:1055A000F91F629B09C080810E94AB28FE100DC0CC
:1055B0008EE20E94AB2809C08081805D0E94552840
:1055C000FE1003C08EE20E945528EA94EFEFEE121F
:1055D000E3CF2C96CDBFDEBFDF91CF911F910F910E
:1055E000FF90EF900895E62FF0E0EE0FFF1FEF5EC3
:1055F000FF4D20813181DC010E94126C41FF06C009
:10560000AAE0B0E09B01AC010E94196C28E030E0F8
:1056100040E050E00E94D66B6091072B8091082BF0
:105620000C941C2A8093082B6093072BCA010C94BE
:105630000C29EF92FF920F931F93CF93DF93FA0100
:10564000F4903196C491C695C695C6954E5F5F4F4E
:1056500070E0F2E18F9F601971091124809103229B
:1056600090910422860F971FE0E010E0D0E02C2FED
:1056700030E0B9016E5E7F4FDF15F1F0082FDC01DD
:10568000FA2FF01BFC1790F4E1110DC0FA011491F0
:105690003196E4901E1105C03196E4914D5F5F4F45
:1056A00002C0AF01E1E0E1501D93EACF820F931FEA
:1056B000861B970BDF5FE0CFDF91CF911F910F919A
:1056C000FF90EF9008950F931F93CF93DF93D82F00
:1056D000162FC42F443638F08CE9840F843628F016
:1056E000C85C82E004C080E002C0C82F81E000E016
:1056F000CA3018F00F5FCA50FBCF233070F0282F4C
:1057000030E0220F331F27543C4EF901459154914C
:10571000612F8D2F0E94192BD35FE02FF0E0EE0F49
:10572000FF1FE754FC4E45915491612F8D2F0E942D
:10573000192BEC2FF0E0EE0FFF1FE754FC4E4591C4
:105740005491612F8DE08D0FDF91CF911F910F91BB
:105750000C94192B5F926F927F928F929F92AF92CF
:10576000BF92CF92DF92EF92FF920F931F93CF934E
:10577000DF93FA01F4903196A490A694A694A6948F
:10578000B12C4115510509F474C0772767FD709558
:10579000EB01CA0DDB1D1C161D060CF06AC04E5F26
:1057A0005F4F082F112707FD1095FB0132E183029F
:1057B000E019F1091124A0910322B0910422AE0F47
:1057C000BF1F80E090E0E0E030E048018F0C911CCA
:1057D000F2E1AF0EB11C7C01E00EF11EE814F904F9
:1057E0000CF047C03B016A1A7B0A6D01C60CD71C3E
:1057F000CC16DD060CF039C0E1110DC0FA01349170
:1058000031965490351105C03196E4914D5F5F4F4C
:1058100002C0AF01E1E0E150F0E8EF16F10418F545
:10582000F0E1CF16D104F8F4211103C0FC91F32369
:1058300017C0213019F4FC91F32B12C0223029F447
:10584000FC91D32ED094FD210BC0233029F4FC9180
:10585000D32ED094FD2904C0243021F4FC91F327E9
:10586000FC9301C03C931196C0CFAA19BB090196C5
:10587000B2CFDF91CF911F910F91FF90EF90DF900A
:10588000CF90BF90AF909F908F907F906F905F90E0
:1058900008959627092E0294202D2F702927692F0D
:1058A0006025660F607E2627602D6927607F6695DC
:1058B000092E000C661F9695969596959F719627D2
:1058C0009827822F089588EA91E62091A10A27FD62
:1058D00009C02AE62A95F1F700C001970097A9F7B9
:1058E00080E008958091A00A0895811105C090B1CB
:1058F0009B3080F05D980EC0863060F0833251F0AE
:10590000863241F094EF980F923020F098EE980F85
:10591000953008F4589A8E3070F410920953109212
:105920000A5310920B5310920C535A9A8C3030F445
:10593000E82FF0E008C0843208F0599A8C50E82F24
:10594000F0E0E35FFC4A60830895E091402090918D
:1059500042209830E0F791E09E0FF0E0E05CFF4DD0
:105960008383F894809142208F5F8093422083E16B
:105970008093A30A7894983008F090E090934020A8
:1059800008951F920F920FB60F9211240BB60F922B
:105990008F929F92AF92BF92CF92DF92EF92FF923F
:1059A0000F931F932F933F934F935F936F937F9327
:1059B0008F939F93AF93BF93EF93FF93CF93DF9317
:1059C0001F92CDB7DEB7A9988091A00A883609F456
:1059D00083C050F5833609F463C0C0F4813609F4FE
:1059E00048C008F053C0833409F054C181E00E94DC
:1059F000A52C81E00E94A52C8EEF0E94A52C90E0A2
:105A0000E92E90E2F92E10E090E0B2C0853609F45C
:105A100057C008F452C0863609F45BC0873609F0D7
:105A200039C1589A5C9836C1803709F471C058F46E
:105A30008A3609F458C008F452C08D3609F02AC1DC
:105A400009E013E55BC0853709F464C028F48137A9
:105A500009F020C1679A1EC1873709F471C08837E1
:105A600009F018C187E40E94A52C01E011E2780139
:105A700073C00BEF1FE1F80184910E94A52C0F5F0A
:105A80001F4FFFE10F3F1F07B1F704C10E94632CB6
:105A9000182F0E94632C682F812F0E94752CFAC04A
:105AA00009E213E50E94632CF80181938F01F3E56D
:105AB0000D321F07B9F7599AEDC00E94103EEAC097
:105AC00040E051E060E070E081E091E20E94566CBD
:105AD000E1C0589A5C9ADEC0589A5D9ADBC0589A29
